:020000040800F2
:1000000050080020C101000831020008F308000870
:10001000310200083102000831020008000000002F
:100020000000000000000000000000003102000895
:10003000310200080000000031020008310200080F
:1000400031020008310200083102000831020008C4
:1000500031020008310200083102000831020008B4
:1000600031020008310200083102000831020008A4
:100070003102000831020008310200083102000894
:1000800031020008310200083102000800000000BF
:100090000000000000000000000000003102000825
:1000A0003102000831020008310200083102000864
:1000B0003102000831020008310200083102000854
:1000C0003102000831020008310200083102000844
:1000D0003102000831020008310200083102000834
:1000E000310200083102000831020008000000005F
:1000F0000000000000000000000000000000000000
:1001000000000000000000000000000000000000EF
:100110000000000000000000310200083102000869
:100120005FF808F180B582B000AF786040F24043DC
:10013000C2F200031A7811467B68D8B240F230430D
:10014000C2F20003585402F10103DAB240F2404314
:10015000C2F200031A7040F24043C2F200031B785F
:100160001A4640F23043C2F200034FF000019954A6
:1001700040F24043C2F200031B7803F101030F2B4E
:1001800005D87B680A2B02D07B68002B14D140F283
:100190004043C2F200034FF000021A7040F23043B5
:1001A000C2F200034FF0040019464FF0000200F0C5
:1001B00095FB0346002B00BF07F10807BD4680BD35
:1001C00080B582B000AF40F62C13C0F600037B6010
:1001D00040F20003C2F200033B600BE07B681A6848
:1001E0003B681A603B6803F104033B607B6803F1E2
:1001F00004037B603A6840F23043C2F200039A4243
:10020000ECD3094809494FF000028842B8BF40F8D2
:10021000042BFFF6FAAF00F00FF800F023FA07F115
:100220000807BD4680BD00003004002050040020B7
:1002300080B400AFFEE700BF80B500AF4FF480533D
:10024000C4F202034FF48052C4F20202126842F078
:1002500001021A604FF48052C4F202024FF480533C
:10026000C4F2020359684FF00003CFF6FF030B40BE
:1002700053604FF48053C4F202034FF48052C4F22F
:100280000202126822F0847222F480321A604FF463
:100290008053C4F202034FF48052C4F20202126887
:1002A00022F480221A604FF48053C4F202034FF408
:1002B0008052C4F20202526822F4FE025A604FF4E5
:1002C0008053C4F202034FF41F029A604FF480532C
:1002D000C4F202034FF00002DA6200F009F84FF4B2
:1002E0006D43CEF200034FF000629A6080BD00BF04
:1002F00080B500AF00F002F880BD00BF80B483B0CD
:1003000000AF4FF000037B604FF000033B604FF401
:100310008053C4F202034FF48052C4F20202126806
:1003200042F480321A604FF48053C4F202031B6817
:1003300003F400333B607B6803F101037B603B689F
:10034000002B03D17B68B3F5A06FECD14FF4805341
:10035000C4F202031B6803F40033002B03D04FF0F8
:1003600001033B6002E04FF000033B603B68012B60
:100370006DD14FF48053C4F202034FF48052C4F2A3
:10038000020252685A604FF48053C4F202034FF4E1
:100390008052C4F2020252685A604FF48053C4F291
:1003A00002034FF48052C4F2020252685A604FF4C2
:1003B0008053C4F202034FF48052C4F20202526826
:1003C00022F47C125A604FF48053C4F202034FF4BB
:1003D0008052C4F20202526842F498125A604FF4FA
:1003E0008053C4F202034FF48052C4F20202126836
:1003F00042F080721A6000BF4FF48053C4F20203CF
:100400001B6803F00073002BF6D04FF48053C4F246
:1004100002034FF48052C4F20202526822F0030237
:100420005A604FF48053C4F202034FF48052C4F276
:100430000202526842F002025A6000BF4FF4805339
:10044000C4F202035B6803F00C03082BF6D107F13A
:100450000C07BD4680BC704780B489B000AF78609F
:1004600039604FF00003FB614FF000033B614FF038
:100470000003BB614FF00003FB604FF000037B61A2
:100480004FF00003BB603B68DB7803F00F03FB61B8
:100490003B68DB7803F01003002B04D03B689B78AB
:1004A000FA691343FB613B681B88DBB2002B4ED01B
:1004B0007B681B687B614FF00003BB6141E0BB6957
:1004C0004FF0010202FA03F3FB603B681B881A46F7
:1004D000FB6813403B613A69FB689A422DD1BB69C6
:1004E0004FEA8303FB60FB684FF00F0202FA03F34D
:1004F000BB60BB686FEA03037A6913407B61FB68EA
:10050000FA6902FA03F37A6913437B613B68DB788B
:10051000282B07D1BB694FF0010202FA03F27B6876
:100520005A610AE03B68DB78482B06D1BB694FF083
:10053000010202FA03F27B681A61BB6903F101034D
:10054000BB61BB69072BBAD97B687A691A603B68C3
:100550001B88FF2B53D97B685B687B614FF00003DE
:10056000BB6146E0BB6903F108034FF0010202FAE8
:1005700003F3FB603B681B881A46FB6813403B6132
:100580003A69FB689A4230D1BB694FEA8303FB604A
:10059000FB684FF00F0202FA03F3BB60BB686FEA1F
:1005A00003037A6913407B61FB68FA6902FA03F37B
:1005B0007A6913437B613B68DB78282B08D1BB69E0
:1005C00003F108034FF0010202FA03F27B685A615B
:1005D0003B68DB78482B08D1BB6903F108034FF077
:1005E000010202FA03F27B681A61BB6903F101039D
:1005F000BB61BB69072BB5D97B687A695A6007F183
:100600002407BD4680BC704780B483B000AF7860DB
:100610007B684FF6FF721A807B684FF002029A7077
:100620007B684FF00402DA7007F10C07BD4680BC0E
:10063000704700BF80B483B000AF786013460A46AD
:100640007A807B707B78002B03D07A887B681A6174
:1006500002E07A887B685A6107F10C07BD4680BCCE
:10066000704700BF80B582B000AF4FF010004FF070
:10067000010100F009F94FF008004FF0010100F00E
:1006800003F907F104031846FFF7BEFF4FF010030C
:10069000FB714FF00203BB714FF40073BB8007F195
:1006A00004034FF48050C4F201001946FFF7D4FE52
:1006B0004FF48073BB8007F104034FF48050C4F201
:1006C00001001946FFF7C8FE40F60C10C0F6000006
:1006D00000F078F84FF40073BB8007F104034FF487
:1006E0004060C4F201001946FFF7B6FE4FF44063C4
:1006F000C4F201034FF400721A6140F24443C2F2A3
:1007000000034FF000021A600BE040F24443C2F2D3
:1007100000031B6803F1010240F24443C2F20003EC
:100720001A6040F24443C2F200031A6844F23F23C5
:10073000C0F20F039A42E8DD40F24843C2F20003E0
:100740001B68002B0CBF00230123DBB24FF4805049
:10075000C4F201004FF400711A46FFF76BFF40F23C
:100760004843C2F200031B68002B14BF002301237F
:10077000DBB21A4640F24843C2F200031A6040F26C
:100780004843C2F200031B68002B0CBF0023012367
:10079000DBB24FF48050C4F201004FF480711A466E
:1007A000FFF748FFA9E700BF80B582B000AF03465E
:1007B000FB71FB791846FFF7B5FC07F10807BD464A
:1007C00080BD00BF80B582B000AF786040F22843A2
:1007D000C2F200031B689B687868194600F02CF889
:1007E0000346184607F10807BD4680BD80B582B0B4
:1007F00000AF7860396040F22843C2F200031B6802
:100800009A683B689A4208D040F22843C2F200033B
:100810001B68DA683B689A4206D17B68DBB21846EF
:10082000FFF7C2FF7B6801E04FF0FF33184607F186
:100830000807BD4680BD00BF80B584B000AF7860BA
:1008400039604FF00003FB6014E07B681B781846AA
:100850003968FFF7CBFF0346B3F1FF3F02D14FF0FA
:10086000FF330CE0FB6803F10103FB607B6803F1DD
:1008700001037B607B681B78002BE6D1FB68184680
:1008800007F11007BD4680BD80B483B000AF78602B
:100890000B46FB70FB78002B0CD04FF48053C4F256
:1008A00002034FF48052C4F2020291697A680A434B
:1008B0009A610DE04FF48053C4F202034FF480526A
:1008C000C4F2020291697A686FEA02020A409A61F0
:1008D00007F10C07BD4680BC704700BFABBE00F0FF
:1008E00002B800207047002A00F00180106001204B
:1008F000704706980188044A914240F00380043012
:1009000006907047FEE70000ABBE0000493243206E
:1009100057696920436C617373696320436F6E7418
:0C092000726F6C6C65720D0A0D00000017
:10092C0000000000000000000100000000000000BA
:10093C0000000000000000000000000000000000AB
:10094C00000000000000000000000000000000009B
:10095C00000000000000000000000000000000008B
:10096C00000000000000000000000000000000007B
:100D4C000000000000000000000000200000000077
:0400000508000000EF
:00000001FF
